{
  "contractName": "Contest",
  "abi": [
    {
      "inputs": [],
      "payable": false,
      "stateMutability": "nonpayable",
      "type": "constructor"
    },
    {
      "anonymous": false,
      "inputs": [
        {
          "indexed": true,
          "internalType": "uint256",
          "name": "_contestantId",
          "type": "uint256"
        }
      ],
      "name": "votedEvent",
      "type": "event"
    },
    {
      "constant": true,
      "inputs": [
        {
          "internalType": "uint256",
          "name": "",
          "type": "uint256"
        }
      ],
      "name": "contestants",
      "outputs": [
        {
          "internalType": "uint256",
          "name": "id",
          "type": "uint256"
        },
        {
          "internalType": "string",
          "name": "name",
          "type": "string"
        },
        {
          "internalType": "uint256",
          "name": "voteCount",
          "type": "uint256"
        }
      ],
      "payable": false,
      "stateMutability": "view",
      "type": "function"
    },
    {
      "constant": true,
      "inputs": [],
      "name": "contestantsCount",
      "outputs": [
        {
          "internalType": "uint256",
          "name": "",
          "type": "uint256"
        }
      ],
      "payable": false,
      "stateMutability": "view",
      "type": "function"
    },
    {
      "constant": true,
      "inputs": [
        {
          "internalType": "address",
          "name": "",
          "type": "address"
        }
      ],
      "name": "voters",
      "outputs": [
        {
          "internalType": "bool",
          "name": "",
          "type": "bool"
        }
      ],
      "payable": false,
      "stateMutability": "view",
      "type": "function"
    },
    {
      "constant": false,
      "inputs": [
        {
          "internalType": "uint256",
          "name": "_contestantId",
          "type": "uint256"
        }
      ],
      "name": "vote",
      "outputs": [],
      "payable": false,
      "stateMutability": "nonpayable",
      "type": "function"
    }
  ],
  "bytecode": "0x608060405234801561001057600080fd5b506100556040518060400160405280600381526020017f545253000000000000000000000000000000000000000000000000000000000081525061012660201b60201c565b6100996040518060400160405280600381526020017f424a50000000000000000000000000000000000000000000000000000000000081525061012660201b60201c565b6100dd6040518060400160405280600381526020017f544450000000000000000000000000000000000000000000000000000000000081525061012660201b60201c565b6101216040518060400160405280600881526020017f4a616e6173656e6100000000000000000000000000000000000000000000000081525061012660201b60201c565b610246565b60026000815480929190600101919050555060405180606001604052806002548152602001828152602001600081525060008060025481526020019081526020016000206000820151816000015560208201518160010190805190602001906101909291906101a1565b506040820151816002015590505050565b828054600181600116156101000203166002900490600052602060002090601f016020900481019282601f106101e257805160ff1916838001178555610210565b82800160010185558215610210579182015b8281111561020f5782518255916020019190600101906101f4565b5b50905061021d9190610221565b5090565b61024391905b8082111561023f576000816000905550600101610227565b5090565b90565b6103e9806102556000396000f3fe608060405234801561001057600080fd5b506004361061004c5760003560e01c80630121b93f14610051578063a3ec138d1461007f578063dfd50f52146100db578063ec63d1c814610190575b600080fd5b61007d6004803603602081101561006757600080fd5b81019080803590602001909291905050506101ae565b005b6100c16004803603602081101561009557600080fd5b81019080803573ffffffffffffffffffffffffffffffffffffffff1690602001909291905050506102cc565b604051808215151515815260200191505060405180910390f35b610107600480360360208110156100f157600080fd5b81019080803590602001909291905050506102ec565b6040518084815260200180602001838152602001828103825284818151815260200191508051906020019080838360005b83811015610153578082015181840152602081019050610138565b50505050905090810190601f1680156101805780820380516001836020036101000a031916815260200191505b5094505050505060405180910390f35b6101986103ae565b6040518082815260200191505060405180910390f35b600160003373ffffffffffffffffffffffffffffffffffffffff1673ffffffffffffffffffffffffffffffffffffffff16815260200190815260200160002060009054906101000a900460ff161561020557600080fd5b60008111801561021757506002548111155b61022057600080fd5b6000808281526020019081526020016000206002016000815480929190600101919050555060018060003373ffffffffffffffffffffffffffffffffffffffff1673ffffffffffffffffffffffffffffffffffffffff16815260200190815260200160002060006101000a81548160ff021916908315150217905550807ffff3c900d938d21d0990d786e819f29b8d05c1ef587b462b939609625b684b1660405160405180910390a250565b60016020528060005260406000206000915054906101000a900460ff1681565b6000602052806000526040600020600091509050806000015490806001018054600181600116156101000203166002900480601f01602080910402602001604051908101604052809291908181526020018280546001816001161561010002031660029004801561039e5780601f106103735761010080835404028352916020019161039e565b820191906000526020600020905b81548152906001019060200180831161038157829003601f168201915b5050505050908060020154905083565b6002548156fea265627a7a7231582079be9712468e65da47ed741a336a66e2376ff6d7b15d9b8b14deb01beabe864a64736f6c63430005100032",
  "source": "pragma solidity 0.5.16;\r\n//creating the contract\r\n\r\ncontract Contest {\r\n\r\n//creating strcture to model the contestant\r\n\r\nstruct Contestant {\r\n\r\nuint id;\r\n\r\nstring name;\r\n\r\nuint voteCount;\r\n\r\n}\r\n\r\n//use mapping to get or fetch the contestant details\r\n\r\nmapping(uint => Contestant) public contestants;\r\n\r\n//to save the list of users/accounts who already casted vote\r\n\r\nmapping(address => bool) public voters;\r\n\r\n//add a public state variable to keep track of contestant Count\r\n\r\nuint public contestantsCount;\r\n\r\nevent votedEvent (\r\n\r\n        uint indexed _contestantId\r\n\r\n    );\r\n\r\n    constructor() public {\r\n\r\naddContestant(\"TRS\");\r\n\r\naddContestant(\"BJP\");\r\n\r\naddContestant(\"TDP\");\r\n\r\naddContestant(\"Janasena\");\r\n\r\n}\r\n\r\n//add a function to add contestant\r\n\r\nfunction addContestant (string memory _name) private {\r\n\r\ncontestantsCount ++;\r\n\r\ncontestants[contestantsCount] = Contestant(contestantsCount, _name, 0);\r\n\r\n}\r\n\r\nfunction vote (uint _contestantId) public {\r\n\r\n//restricting the person who already casted the vote\r\n\r\nrequire(!voters[msg.sender]);\r\n\r\n//require that the vote is casted to a valid contestant\r\n\r\nrequire(_contestantId > 0 && _contestantId <= contestantsCount);\r\n\r\n//increase the contestant vote count\r\n\r\ncontestants[_contestantId].voteCount ++;\r\n\r\n//set the voter's voted status to true\r\n\r\nvoters[msg.sender] = true;\r\n\r\n//trigger the vote event\r\n\r\nemit votedEvent(_contestantId);\r\n\r\n}\r\n\r\n}",
  "sourcePath": "C:\\Users\\ash47\\PC\\Documents\\contest\\contest\\contracts\\Contest.sol",
  "compiler": {
    "name": "solc",
    "version": "0.5.16+commit.9c3226ce.Emscripten.clang"
  },
  "schemaVersion": "3.4.13",
  "updatedAt": "2023-06-06T10:40:33.041Z",
  "networkType": "ethereum",
  "devdoc": {
    "methods": {}
  },
  "userdoc": {
    "methods": {}
  }
}